{
  "_format": "hh-sol-artifact-1",
  "contractName": "AssetCustody",
  "sourceName": "contracts/AssetCustody.sol",
  "abi": [
    {
      "inputs": [
        {
          "internalType": "address",
          "name": "tokenAddress",
          "type": "address"
        }
      ],
      "stateMutability": "nonpayable",
      "type": "constructor"
    },
    {
      "anonymous": false,
      "inputs": [
        {
          "indexed": true,
          "internalType": "uint256",
          "name": "assetId",
          "type": "uint256"
        },
        {
          "indexed": true,
          "internalType": "address",
          "name": "redeemer",
          "type": "address"
        },
        {
          "indexed": false,
          "internalType": "uint256",
          "name": "burnedAmount",
          "type": "uint256"
        }
      ],
      "name": "AssetRedeemed",
      "type": "event"
    },
    {
      "anonymous": false,
      "inputs": [
        {
          "indexed": true,
          "internalType": "uint256",
          "name": "assetId",
          "type": "uint256"
        },
        {
          "indexed": false,
          "internalType": "string",
          "name": "metadataURI",
          "type": "string"
        },
        {
          "indexed": false,
          "internalType": "uint256",
          "name": "totalTokenSupply",
          "type": "uint256"
        }
      ],
      "name": "AssetRegistered",
      "type": "event"
    },
    {
      "anonymous": false,
      "inputs": [
        {
          "indexed": true,
          "internalType": "address",
          "name": "previousOwner",
          "type": "address"
        },
        {
          "indexed": true,
          "internalType": "address",
          "name": "newOwner",
          "type": "address"
        }
      ],
      "name": "OwnershipTransferred",
      "type": "event"
    },
    {
      "inputs": [
        {
          "internalType": "uint256",
          "name": "",
          "type": "uint256"
        }
      ],
      "name": "assets",
      "outputs": [
        {
          "internalType": "string",
          "name": "name",
          "type": "string"
        },
        {
          "internalType": "string",
          "name": "metadataURI",
          "type": "string"
        },
        {
          "internalType": "uint256",
          "name": "totalTokenSupply",
          "type": "uint256"
        },
        {
          "internalType": "uint256",
          "name": "propertyValue",
          "type": "uint256"
        },
        {
          "internalType": "bool",
          "name": "exists",
          "type": "bool"
        },
        {
          "internalType": "bool",
          "name": "redeemed",
          "type": "bool"
        }
      ],
      "stateMutability": "view",
      "type": "function"
    },
    {
      "inputs": [
        {
          "internalType": "uint256",
          "name": "amount",
          "type": "uint256"
        },
        {
          "internalType": "address",
          "name": "to",
          "type": "address"
        }
      ],
      "name": "distribute",
      "outputs": [],
      "stateMutability": "nonpayable",
      "type": "function"
    },
    {
      "inputs": [],
      "name": "nextAssetId",
      "outputs": [
        {
          "internalType": "uint256",
          "name": "",
          "type": "uint256"
        }
      ],
      "stateMutability": "view",
      "type": "function"
    },
    {
      "inputs": [],
      "name": "owner",
      "outputs": [
        {
          "internalType": "address",
          "name": "",
          "type": "address"
        }
      ],
      "stateMutability": "view",
      "type": "function"
    },
    {
      "inputs": [
        {
          "internalType": "uint256",
          "name": "assetId",
          "type": "uint256"
        },
        {
          "internalType": "uint256",
          "name": "amount",
          "type": "uint256"
        }
      ],
      "name": "redeem",
      "outputs": [],
      "stateMutability": "nonpayable",
      "type": "function"
    },
    {
      "inputs": [
        {
          "internalType": "string",
          "name": "name",
          "type": "string"
        },
        {
          "internalType": "string",
          "name": "metadataURI",
          "type": "string"
        },
        {
          "internalType": "uint256",
          "name": "totalTokenSupply",
          "type": "uint256"
        },
        {
          "internalType": "uint256",
          "name": "propertyValue",
          "type": "uint256"
        }
      ],
      "name": "registerAsset",
      "outputs": [
        {
          "internalType": "uint256",
          "name": "",
          "type": "uint256"
        }
      ],
      "stateMutability": "nonpayable",
      "type": "function"
    },
    {
      "inputs": [],
      "name": "renounceOwnership",
      "outputs": [],
      "stateMutability": "nonpayable",
      "type": "function"
    },
    {
      "inputs": [],
      "name": "token",
      "outputs": [
        {
          "internalType": "contract AssetToken",
          "name": "",
          "type": "address"
        }
      ],
      "stateMutability": "view",
      "type": "function"
    },
    {
      "inputs": [
        {
          "internalType": "address",
          "name": "newOwner",
          "type": "address"
        }
      ],
      "name": "transferOwnership",
      "outputs": [],
      "stateMutability": "nonpayable",
      "type": "function"
    }
  ],
  "bytecode": "0x60806040523480156200001157600080fd5b5060405162001af638038062001af68339818101604052810190620000379190620001dd565b620000576200004b620000a760201b60201c565b620000af60201b60201c565b80600160006101000a81548173ffffffffffffffffffffffffffffffffffffffff021916908373ffffffffffffffffffffffffffffffffffffffff1602179055506001600281905550506200020f565b600033905090565b60008060009054906101000a900473ffffffffffffffffffffffffffffffffffffffff169050816000806101000a81548173ffffffffffffffffffffffffffffffffffffffff021916908373ffffffffffffffffffffffffffffffffffffffff1602179055508173ffffffffffffffffffffffffffffffffffffffff168173ffffffffffffffffffffffffffffffffffffffff167f8be0079c531659141344cd1fd0a4f28419497f9722a3daafe3b4186f6b6457e060405160405180910390a35050565b600080fd5b600073ffffffffffffffffffffffffffffffffffffffff82169050919050565b6000620001a58262000178565b9050919050565b620001b78162000198565b8114620001c357600080fd5b50565b600081519050620001d781620001ac565b92915050565b600060208284031215620001f657620001f562000173565b5b60006200020684828501620001c6565b91505092915050565b6118d7806200021f6000396000f3fe608060405234801561001057600080fd5b50600436106100935760003560e01c80638ed91318116100665780638ed913181461010c578063cf35bdd01461012a578063e1fa8b021461015f578063f2fde38b1461017b578063fc0c546a1461019757610093565b80636c096b0314610098578063715018a6146100c85780637cbc2373146100d25780638da5cb5b146100ee575b600080fd5b6100b260048036038101906100ad9190610ca8565b6101b5565b6040516100bf9190610d5e565b60405180910390f35b6100d061048a565b005b6100ec60048036038101906100e79190610d79565b61049e565b005b6100f661078b565b6040516101039190610dfa565b60405180910390f35b6101146107b4565b6040516101219190610d5e565b60405180910390f35b610144600480360381019061013f9190610e15565b6107ba565b60405161015696959493929190610eed565b60405180910390f35b61017960048036038101906101749190610f88565b610920565b005b61019560048036038101906101909190610fc8565b610a10565b005b61019f610a93565b6040516101ac9190611054565b60405180910390f35b60006101bf610ab9565b60008311610202576040517f08c379a00000000000000000000000000000000000000000000000000000000081526004016101f9906110bb565b60405180910390fd5b60008211610245576040517f08c379a000000000000000000000000000000000000000000000000000000000815260040161023c90611127565b60405180910390fd5b60006002600081548092919061025a90611176565b9190505590506040518060c0016040528089898080601f016020809104026020016040519081016040528093929190818152602001838380828437600081840152601f19601f82011690508083019250505050505050815260200187878080601f016020809104026020016040519081016040528093929190818152602001838380828437600081840152601f19601f8201169050808301925050505050505081526020018581526020018481526020016001151581526020016000151581525060036000838152602001908152602001600020600082015181600001908161034391906113ef565b50602082015181600101908161035991906113ef565b50604082015181600201556060820151816003015560808201518160040160006101000a81548160ff02191690831515021790555060a08201518160040160016101000a81548160ff021916908315150217905550905050600160009054906101000a900473ffffffffffffffffffffffffffffffffffffffff1673ffffffffffffffffffffffffffffffffffffffff166340c10f1930866040518363ffffffff1660e01b815260040161040e9291906114c1565b600060405180830381600087803b15801561042857600080fd5b505af115801561043c573d6000803e3d6000fd5b50505050807f11c24514caea013960c65f2cc666d0cd125b940002413a6e09df458c2663920f87878760405161047493929190611526565b60405180910390a2809150509695505050505050565b610492610ab9565b61049c6000610b37565b565b60006003600084815260200190815260200160002090508060040160009054906101000a900460ff16610506576040517f08c379a00000000000000000000000000000000000000000000000000000000081526004016104fd906115a4565b60405180910390fd5b8060040160019054906101000a900460ff1615610558576040517f08c379a000000000000000000000000000000000000000000000000000000000815260040161054f90611610565b60405180910390fd5b6000821161059b576040517f08c379a00000000000000000000000000000000000000000000000000000000081526004016105929061167c565b60405180910390fd5b6000600160009054906101000a900473ffffffffffffffffffffffffffffffffffffffff1673ffffffffffffffffffffffffffffffffffffffff166370a08231306040518263ffffffff1660e01b81526004016105f89190610dfa565b602060405180830381865afa158015610615573d6000803e3d6000fd5b505050506040513d601f19601f8201168201806040525081019061063991906116b1565b90508281101561067e576040517f08c379a00000000000000000000000000000000000000000000000000000000081526004016106759061172a565b60405180910390fd5b600160009054906101000a900473ffffffffffffffffffffffffffffffffffffffff1673ffffffffffffffffffffffffffffffffffffffff16639dc29fac30856040518363ffffffff1660e01b81526004016106db9291906114c1565b600060405180830381600087803b1580156106f557600080fd5b505af1158015610709573d6000803e3d6000fd5b50505050816002015483106107365760018260040160016101000a81548160ff0219169083151502179055505b3373ffffffffffffffffffffffffffffffffffffffff16847f22ef9db570288059f173980fa92b801ff0910545fde98e7d1a4ca74c1d92373f8560405161077d9190610d5e565b60405180910390a350505050565b60008060009054906101000a900473ffffffffffffffffffffffffffffffffffffffff16905090565b60025481565b60036020528060005260406000206000915090508060000180546107dd9061121c565b80601f01602080910402602001604051908101604052809291908181526020018280546108099061121c565b80156108565780601f1061082b57610100808354040283529160200191610856565b820191906000526020600020905b81548152906001019060200180831161083957829003601f168201915b50505050509080600101805461086b9061121c565b80601f01602080910402602001604051908101604052809291908181526020018280546108979061121c565b80156108e45780601f106108b9576101008083540402835291602001916108e4565b820191906000526020600020905b8154815290600101906020018083116108c757829003601f168201915b5050505050908060020154908060030154908060040160009054906101000a900460ff16908060040160019054906101000a900460ff16905086565b610928610ab9565b6000821161096b576040517f08c379a00000000000000000000000000000000000000000000000000000000081526004016109629061167c565b60405180910390fd5b600160009054906101000a900473ffffffffffffffffffffffffffffffffffffffff1673ffffffffffffffffffffffffffffffffffffffff1663a9059cbb82846040518363ffffffff1660e01b81526004016109c89291906114c1565b6020604051808303816000875af11580156109e7573d6000803e3d6000fd5b505050506040513d601f19601f82011682018060405250810190610a0b9190611776565b505050565b610a18610ab9565b600073ffffffffffffffffffffffffffffffffffffffff168173ffffffffffffffffffffffffffffffffffffffff1603610a87576040517f08c379a0000000000000000000000000000000000000000000000000000000008152600401610a7e90611815565b60405180910390fd5b610a9081610b37565b50565b600160009054906101000a900473ffffffffffffffffffffffffffffffffffffffff1681565b610ac1610bfb565b73ffffffffffffffffffffffffffffffffffffffff16610adf61078b565b73ffffffffffffffffffffffffffffffffffffffff1614610b35576040517f08c379a0000000000000000000000000000000000000000000000000000000008152600401610b2c90611881565b60405180910390fd5b565b60008060009054906101000a900473ffffffffffffffffffffffffffffffffffffffff169050816000806101000a81548173ffffffffffffffffffffffffffffffffffffffff021916908373ffffffffffffffffffffffffffffffffffffffff1602179055508173ffffffffffffffffffffffffffffffffffffffff168173ffffffffffffffffffffffffffffffffffffffff167f8be0079c531659141344cd1fd0a4f28419497f9722a3daafe3b4186f6b6457e060405160405180910390a35050565b600033905090565b600080fd5b600080fd5b600080fd5b600080fd5b600080fd5b60008083601f840112610c3257610c31610c0d565b5b8235905067ffffffffffffffff811115610c4f57610c4e610c12565b5b602083019150836001820283011115610c6b57610c6a610c17565b5b9250929050565b6000819050919050565b610c8581610c72565b8114610c9057600080fd5b50565b600081359050610ca281610c7c565b92915050565b60008060008060008060808789031215610cc557610cc4610c03565b5b600087013567ffffffffffffffff811115610ce357610ce2610c08565b5b610cef89828a01610c1c565b9650965050602087013567ffffffffffffffff811115610d1257610d11610c08565b5b610d1e89828a01610c1c565b94509450506040610d3189828a01610c93565b9250506060610d4289828a01610c93565b9150509295509295509295565b610d5881610c72565b82525050565b6000602082019050610d736000830184610d4f565b92915050565b60008060408385031215610d9057610d8f610c03565b5b6000610d9e85828601610c93565b9250506020610daf85828601610c93565b9150509250929050565b600073ffffffffffffffffffffffffffffffffffffffff82169050919050565b6000610de482610db9565b9050919050565b610df481610dd9565b82525050565b6000602082019050610e0f6000830184610deb565b92915050565b600060208284031215610e2b57610e2a610c03565b5b6000610e3984828501610c93565b91505092915050565b600081519050919050565b600082825260208201905092915050565b60005b83811015610e7c578082015181840152602081019050610e61565b60008484015250505050565b6000601f19601f8301169050919050565b6000610ea482610e42565b610eae8185610e4d565b9350610ebe818560208601610e5e565b610ec781610e88565b840191505092915050565b60008115159050919050565b610ee781610ed2565b82525050565b600060c0820190508181036000830152610f078189610e99565b90508181036020830152610f1b8188610e99565b9050610f2a6040830187610d4f565b610f376060830186610d4f565b610f446080830185610ede565b610f5160a0830184610ede565b979650505050505050565b610f6581610dd9565b8114610f7057600080fd5b50565b600081359050610f8281610f5c565b92915050565b60008060408385031215610f9f57610f9e610c03565b5b6000610fad85828601610c93565b9250506020610fbe85828601610f73565b9150509250929050565b600060208284031215610fde57610fdd610c03565b5b6000610fec84828501610f73565b91505092915050565b6000819050919050565b600061101a61101561101084610db9565b610ff5565b610db9565b9050919050565b600061102c82610fff565b9050919050565b600061103e82611021565b9050919050565b61104e81611033565b82525050565b60006020820190506110696000830184611045565b92915050565b7f737570706c793e30000000000000000000000000000000000000000000000000600082015250565b60006110a5600883610e4d565b91506110b08261106f565b602082019050919050565b600060208201905081810360008301526110d481611098565b9050919050565b7f76616c75653e3000000000000000000000000000000000000000000000000000600082015250565b6000611111600783610e4d565b915061111c826110db565b602082019050919050565b6000602082019050818103600083015261114081611104565b9050919050565b7f4e487b7100000000000000000000000000000000000000000000000000000000600052601160045260246000fd5b600061118182610c72565b91507fffffffffffffffffffffffffffffffffffffffffffffffffffffffffffffffff82036111b3576111b2611147565b5b600182019050919050565b7f4e487b7100000000000000000000000000000000000000000000000000000000600052604160045260246000fd5b7f4e487b7100000000000000000000000000000000000000000000000000000000600052602260045260246000fd5b6000600282049050600182168061123457607f821691505b602082108103611247576112466111ed565b5b50919050565b60008190508160005260206000209050919050565b60006020601f8301049050919050565b600082821b905092915050565b6000600883026112af7fffffffffffffffffffffffffffffffffffffffffffffffffffffffffffffffff82611272565b6112b98683611272565b95508019841693508086168417925050509392505050565b60006112ec6112e76112e284610c72565b610ff5565b610c72565b9050919050565b6000819050919050565b611306836112d1565b61131a611312826112f3565b84845461127f565b825550505050565b600090565b61132f611322565b61133a8184846112fd565b505050565b5b8181101561135e57611353600082611327565b600181019050611340565b5050565b601f8211156113a3576113748161124d565b61137d84611262565b8101602085101561138c578190505b6113a061139885611262565b83018261133f565b50505b505050565b600082821c905092915050565b60006113c6600019846008026113a8565b1980831691505092915050565b60006113df83836113b5565b9150826002028217905092915050565b6113f882610e42565b67ffffffffffffffff811115611411576114106111be565b5b61141b825461121c565b611426828285611362565b600060209050601f8311600181146114595760008415611447578287015190505b61145185826113d3565b8655506114b9565b601f1984166114678661124d565b60005b8281101561148f5784890151825560018201915060208501945060208101905061146a565b868310156114ac57848901516114a8601f8916826113b5565b8355505b6001600288020188555050505b505050505050565b60006040820190506114d66000830185610deb565b6114e36020830184610d4f565b9392505050565b82818337600083830152505050565b60006115058385610e4d565b93506115128385846114ea565b61151b83610e88565b840190509392505050565b600060408201905081810360008301526115418185876114f9565b90506115506020830184610d4f565b949350505050565b7f6173736574206e6f7420666f756e640000000000000000000000000000000000600082015250565b600061158e600f83610e4d565b915061159982611558565b602082019050919050565b600060208201905081810360008301526115bd81611581565b9050919050565b7f616c72656164792072656465656d656400000000000000000000000000000000600082015250565b60006115fa601083610e4d565b9150611605826115c4565b602082019050919050565b60006020820190508181036000830152611629816115ed565b9050919050565b7f616d6f756e743e30000000000000000000000000000000000000000000000000600082015250565b6000611666600883610e4d565b915061167182611630565b602082019050919050565b6000602082019050818103600083015261169581611659565b9050919050565b6000815190506116ab81610c7c565b92915050565b6000602082840312156116c7576116c6610c03565b5b60006116d58482850161169c565b91505092915050565b7f696e73756666696369656e74206465706f736974656420746f6b656e73000000600082015250565b6000611714601d83610e4d565b915061171f826116de565b602082019050919050565b6000602082019050818103600083015261174381611707565b9050919050565b61175381610ed2565b811461175e57600080fd5b50565b6000815190506117708161174a565b92915050565b60006020828403121561178c5761178b610c03565b5b600061179a84828501611761565b91505092915050565b7f4f776e61626c653a206e6577206f776e657220697320746865207a65726f206160008201527f6464726573730000000000000000000000000000000000000000000000000000602082015250565b60006117ff602683610e4d565b915061180a826117a3565b604082019050919050565b6000602082019050818103600083015261182e816117f2565b9050919050565b7f4f776e61626c653a2063616c6c6572206973206e6f7420746865206f776e6572600082015250565b600061186b602083610e4d565b915061187682611835565b602082019050919050565b6000602082019050818103600083015261189a8161185e565b905091905056fea264697066735822122011ac95f33ab7e7e2c9004cab31163383f4798ecbfe9b121da24dc8bdc829cdd564736f6c63430008130033",
  "linkReferences": {},
  "deployedLinkReferences": {}
}